{
  "contractName": "HODLIT",
  "abi": [
    {
      "constant": true,
      "inputs": [],
      "name": "multiplicator",
      "outputs": [
        {
          "name": "",
          "type": "uint256"
        }
      ],
      "payable": false,
      "stateMutability": "view",
      "type": "function"
    },
    {
      "constant": true,
      "inputs": [],
      "name": "name",
      "outputs": [
        {
          "name": "",
          "type": "string"
        }
      ],
      "payable": false,
      "stateMutability": "view",
      "type": "function"
    },
    {
      "constant": false,
      "inputs": [
        {
          "name": "_spender",
          "type": "address"
        },
        {
          "name": "_value",
          "type": "uint256"
        }
      ],
      "name": "approve",
      "outputs": [
        {
          "name": "",
          "type": "bool"
        }
      ],
      "payable": false,
      "stateMutability": "nonpayable",
      "type": "function"
    },
    {
      "constant": true,
      "inputs": [],
      "name": "totalSupply",
      "outputs": [
        {
          "name": "",
          "type": "uint256"
        }
      ],
      "payable": false,
      "stateMutability": "view",
      "type": "function"
    },
    {
      "constant": false,
      "inputs": [
        {
          "name": "_from",
          "type": "address"
        },
        {
          "name": "_to",
          "type": "address"
        },
        {
          "name": "_value",
          "type": "uint256"
        }
      ],
      "name": "transferFrom",
      "outputs": [
        {
          "name": "",
          "type": "bool"
        }
      ],
      "payable": false,
      "stateMutability": "nonpayable",
      "type": "function"
    },
    {
      "constant": true,
      "inputs": [],
      "name": "regStopTime",
      "outputs": [
        {
          "name": "",
          "type": "uint256"
        }
      ],
      "payable": false,
      "stateMutability": "view",
      "type": "function"
    },
    {
      "constant": true,
      "inputs": [],
      "name": "decimals",
      "outputs": [
        {
          "name": "",
          "type": "uint256"
        }
      ],
      "payable": false,
      "stateMutability": "view",
      "type": "function"
    },
    {
      "constant": true,
      "inputs": [
        {
          "name": "",
          "type": "address"
        }
      ],
      "name": "ICDClaims",
      "outputs": [
        {
          "name": "",
          "type": "bool"
        }
      ],
      "payable": false,
      "stateMutability": "view",
      "type": "function"
    },
    {
      "constant": true,
      "inputs": [],
      "name": "PCDStartTime",
      "outputs": [
        {
          "name": "",
          "type": "uint256"
        }
      ],
      "payable": false,
      "stateMutability": "view",
      "type": "function"
    },
    {
      "constant": false,
      "inputs": [
        {
          "name": "_hours",
          "type": "uint256"
        }
      ],
      "name": "addHours",
      "outputs": [],
      "payable": false,
      "stateMutability": "nonpayable",
      "type": "function"
    },
    {
      "constant": true,
      "inputs": [],
      "name": "POHStartTime",
      "outputs": [
        {
          "name": "",
          "type": "uint256"
        }
      ],
      "payable": false,
      "stateMutability": "view",
      "type": "function"
    },
    {
      "constant": false,
      "inputs": [
        {
          "name": "_development",
          "type": "bool"
        }
      ],
      "name": "setDevelopment",
      "outputs": [],
      "payable": false,
      "stateMutability": "nonpayable",
      "type": "function"
    },
    {
      "constant": true,
      "inputs": [],
      "name": "ERC721Address",
      "outputs": [
        {
          "name": "",
          "type": "address"
        }
      ],
      "payable": false,
      "stateMutability": "view",
      "type": "function"
    },
    {
      "constant": false,
      "inputs": [
        {
          "name": "_spender",
          "type": "address"
        },
        {
          "name": "_subtractedValue",
          "type": "uint256"
        }
      ],
      "name": "decreaseApproval",
      "outputs": [
        {
          "name": "",
          "type": "bool"
        }
      ],
      "payable": false,
      "stateMutability": "nonpayable",
      "type": "function"
    },
    {
      "constant": true,
      "inputs": [
        {
          "name": "_owner",
          "type": "address"
        }
      ],
      "name": "balanceOf",
      "outputs": [
        {
          "name": "balance",
          "type": "uint256"
        }
      ],
      "payable": false,
      "stateMutability": "view",
      "type": "function"
    },
    {
      "constant": true,
      "inputs": [],
      "name": "ICDStartTime",
      "outputs": [
        {
          "name": "",
          "type": "uint256"
        }
      ],
      "payable": false,
      "stateMutability": "view",
      "type": "function"
    },
    {
      "constant": true,
      "inputs": [],
      "name": "owner",
      "outputs": [
        {
          "name": "",
          "type": "address"
        }
      ],
      "payable": false,
      "stateMutability": "view",
      "type": "function"
    },
    {
      "constant": true,
      "inputs": [],
      "name": "symbol",
      "outputs": [
        {
          "name": "",
          "type": "string"
        }
      ],
      "payable": false,
      "stateMutability": "view",
      "type": "function"
    },
    {
      "constant": true,
      "inputs": [
        {
          "name": "",
          "type": "address"
        }
      ],
      "name": "etherBalances",
      "outputs": [
        {
          "name": "",
          "type": "uint256"
        }
      ],
      "payable": false,
      "stateMutability": "view",
      "type": "function"
    },
    {
      "constant": true,
      "inputs": [],
      "name": "POHStopTime",
      "outputs": [
        {
          "name": "",
          "type": "uint256"
        }
      ],
      "payable": false,
      "stateMutability": "view",
      "type": "function"
    },
    {
      "constant": true,
      "inputs": [],
      "name": "ICDSupply",
      "outputs": [
        {
          "name": "",
          "type": "uint256"
        }
      ],
      "payable": false,
      "stateMutability": "view",
      "type": "function"
    },
    {
      "constant": true,
      "inputs": [],
      "name": "regStartTime",
      "outputs": [
        {
          "name": "",
          "type": "uint256"
        }
      ],
      "payable": false,
      "stateMutability": "view",
      "type": "function"
    },
    {
      "constant": false,
      "inputs": [
        {
          "name": "_to",
          "type": "address"
        },
        {
          "name": "_value",
          "type": "uint256"
        }
      ],
      "name": "transfer",
      "outputs": [
        {
          "name": "",
          "type": "bool"
        }
      ],
      "payable": false,
      "stateMutability": "nonpayable",
      "type": "function"
    },
    {
      "constant": false,
      "inputs": [
        {
          "name": "_spender",
          "type": "address"
        },
        {
          "name": "_addedValue",
          "type": "uint256"
        }
      ],
      "name": "increaseApproval",
      "outputs": [
        {
          "name": "",
          "type": "bool"
        }
      ],
      "payable": false,
      "stateMutability": "nonpayable",
      "type": "function"
    },
    {
      "constant": false,
      "inputs": [
        {
          "name": "_days",
          "type": "uint256"
        }
      ],
      "name": "addDays",
      "outputs": [],
      "payable": false,
      "stateMutability": "nonpayable",
      "type": "function"
    },
    {
      "constant": true,
      "inputs": [
        {
          "name": "_owner",
          "type": "address"
        },
        {
          "name": "_spender",
          "type": "address"
        }
      ],
      "name": "allowance",
      "outputs": [
        {
          "name": "",
          "type": "uint256"
        }
      ],
      "payable": false,
      "stateMutability": "view",
      "type": "function"
    },
    {
      "constant": true,
      "inputs": [],
      "name": "ICDStopTime",
      "outputs": [
        {
          "name": "",
          "type": "uint256"
        }
      ],
      "payable": false,
      "stateMutability": "view",
      "type": "function"
    },
    {
      "constant": false,
      "inputs": [
        {
          "name": "newOwner",
          "type": "address"
        }
      ],
      "name": "transferOwnership",
      "outputs": [],
      "payable": false,
      "stateMutability": "nonpayable",
      "type": "function"
    },
    {
      "constant": true,
      "inputs": [],
      "name": "ICDCap",
      "outputs": [
        {
          "name": "",
          "type": "uint256"
        }
      ],
      "payable": false,
      "stateMutability": "view",
      "type": "function"
    },
    {
      "constant": true,
      "inputs": [],
      "name": "hardCap",
      "outputs": [
        {
          "name": "",
          "type": "uint256"
        }
      ],
      "payable": false,
      "stateMutability": "view",
      "type": "function"
    },
    {
      "inputs": [],
      "payable": false,
      "stateMutability": "nonpayable",
      "type": "constructor"
    },
    {
      "payable": true,
      "stateMutability": "payable",
      "type": "fallback"
    },
    {
      "anonymous": false,
      "inputs": [
        {
          "indexed": true,
          "name": "previousOwner",
          "type": "address"
        },
        {
          "indexed": true,
          "name": "newOwner",
          "type": "address"
        }
      ],
      "name": "OwnershipTransferred",
      "type": "event"
    },
    {
      "anonymous": false,
      "inputs": [
        {
          "indexed": true,
          "name": "owner",
          "type": "address"
        },
        {
          "indexed": true,
          "name": "spender",
          "type": "address"
        },
        {
          "indexed": false,
          "name": "value",
          "type": "uint256"
        }
      ],
      "name": "Approval",
      "type": "event"
    },
    {
      "anonymous": false,
      "inputs": [
        {
          "indexed": true,
          "name": "from",
          "type": "address"
        },
        {
          "indexed": true,
          "name": "to",
          "type": "address"
        },
        {
          "indexed": false,
          "name": "value",
          "type": "uint256"
        }
      ],
      "name": "Transfer",
      "type": "event"
    },
    {
      "constant": false,
      "inputs": [
        {
          "name": "_ERC721Address",
          "type": "address"
        }
      ],
      "name": "setERC721Address",
      "outputs": [],
      "payable": false,
      "stateMutability": "nonpayable",
      "type": "function"
    },
    {
      "constant": false,
      "inputs": [],
      "name": "registerEtherBalance",
      "outputs": [],
      "payable": false,
      "stateMutability": "nonpayable",
      "type": "function"
    },
    {
      "constant": false,
      "inputs": [],
      "name": "claimTokens",
      "outputs": [],
      "payable": false,
      "stateMutability": "nonpayable",
      "type": "function"
    },
    {
      "constant": false,
      "inputs": [
        {
          "name": "_to",
          "type": "address"
        },
        {
          "name": "_amount",
          "type": "uint256"
        }
      ],
      "name": "mintPCD",
      "outputs": [
        {
          "name": "",
          "type": "bool"
        }
      ],
      "payable": false,
      "stateMutability": "nonpayable",
      "type": "function"
    }
  ],
  "bytecode": "0x6060604052426004556040805190810160405280601481526020017f484f444c20494e43454e5449564520544f4b454e0000000000000000000000008152506005908051906020019062000055929190620003fb565b506040805190810160405280600381526020017f484954000000000000000000000000000000000000000000000000000000000081525060069080519060200190620000a3929190620003fb565b506012600755600754600a0a600855620000d86305f5e1006008546200039d6401000000000262002a86176401000000009004565b600b55620001016301312d006008546200039d6401000000000262002a86176401000000009004565b600c55635a970a40600f5562093a80600f540160105560105460115562093a806011540160125560125460135562093a8060135401601455621275006014540160155534156200015057600080fd5b600033600360006101000a81548173ffffffffffffffffffffffffffffffffffffffff021916908373ffffffffffffffffffffffffffffffffffffffff160217905550620001b96301c9c3806008546200039d6401000000000262002a86176401000000009004565b905033600360006101000a81548173ffffffffffffffffffffffffffffffffffffffff021916908373ffffffffffffffffffffffffffffffffffffffff1602179055506200022181600954620003dc64010000000002620020f2179091906401000000009004565b600981905550620002aa81600080600360009054906101000a900473ffffffffffffffffffffffffffffffffffffffff1673ffffffffffffffffffffffffffffffffffffffff1673ffffffffffffffffffffffffffffffffffffffff16815260200190815260200160002054620003dc64010000000002620020f2179091906401000000009004565b600080600360009054906101000a900473ffffffffffffffffffffffffffffffffffffffff1673ffffffffffffffffffffffffffffffffffffffff1673ffffffffffffffffffffffffffffffffffffffff16815260200190815260200160002081905550600360009054906101000a900473ffffffffffffffffffffffffffffffffffffffff1673ffffffffffffffffffffffffffffffffffffffff16600073ffffffffffffffffffffffffffffffffffffffff167fddf252ad1be2c89b69c2b068fc378daa952ba7f163c4a11628f55a4df523b3ef836040518082815260200191505060405180910390a350620004aa565b6000806000841415620003b45760009150620003d5565b8284029050828482811515620003c657fe5b04141515620003d157fe5b8091505b5092915050565b6000808284019050838110151515620003f157fe5b8091505092915050565b828054600181600116156101000203166002900490600052602060002090601f016020900481019282601f106200043e57805160ff19168380011785556200046f565b828001600101855582156200046f579182015b828111156200046e57825182559160200191906001019062000451565b5b5090506200047e919062000482565b5090565b620004a791905b80821115620004a357600081600090555060010162000489565b5090565b90565b612aed80620004ba6000396000f3006060604052600436106101ab576000357c0100000000000000000000000000000000000000000000000000000000900463ffffffff168062fa081a146101b057806306fdde03146101d9578063095ea7b31461026757806318160ddd146102c157806323b872dd146102ea578063297c9cd914610363578063313ce5671461038c57806331df5186146103b55780633b007512146103ca578063456176eb1461041b57806348c54b9d146104445780634dfd299c1461045957806351f1fa971461047c578063532575ca146104a5578063574490cd146104ca578063661884631461051f57806370a082311461057957806373107c99146105c6578063742cd75d146105ef5780638da5cb5b1461064957806395d89b411461069e5780639653f8a11461072c57806396a6a748146107795780639a03d9a3146107a25780639d2ff29c146107db578063a69bd4a814610804578063a9059cbb1461082d578063d73dd62314610887578063dabd5d65146108e1578063dd62ed3e14610904578063eb1de3e514610970578063f2fde38b14610999578063f949116d146109d2578063fb86a404146109fb575b600080fd5b34156101bb57600080fd5b6101c3610a24565b6040518082815260200191505060405180910390f35b34156101e457600080fd5b6101ec610a2a565b6040518080602001828103825283818151815260200191508051906020019080838360005b8381101561022c578082015181840152602081019050610211565b50505050905090810190601f1680156102595780820380516001836020036101000a031916815260200191505b509250505060405180910390f35b341561027257600080fd5b6102a7600480803573ffffffffffffffffffffffffffffffffffffffff16906020019091908035906020019091905050610ac8565b604051808215151515815260200191505060405180910390f35b34156102cc57600080fd5b6102d4610bba565b6040518082815260200191505060405180910390f35b34156102f557600080fd5b610349600480803573ffffffffffffffffffffffffffffffffffffffff1690602001909190803573ffffffffffffffffffffffffffffffffffffffff16906020019091908035906020019091905050610bc0565b604051808215151515815260200191505060405180910390f35b341561036e57600080fd5b610376610f7a565b6040518082815260200191505060405180910390f35b341561039757600080fd5b61039f610f80565b6040518082815260200191505060405180910390f35b34156103c057600080fd5b6103c8610f86565b005b34156103d557600080fd5b610401600480803573ffffffffffffffffffffffffffffffffffffffff1690602001909190505061103b565b604051808215151515815260200191505060405180910390f35b341561042657600080fd5b61042e61105b565b6040518082815260200191505060405180910390f35b341561044f57600080fd5b610457611061565b005b341561046457600080fd5b61047a600480803590602001909190505061125d565b005b341561048757600080fd5b61048f6112df565b6040518082815260200191505060405180910390f35b34156104b057600080fd5b6104c8600480803515159060200190919050506112e5565b005b34156104d557600080fd5b6104dd61135e565b604051808273ffffffffffffffffffffffffffffffffffffffff1673ffffffffffffffffffffffffffffffffffffffff16815260200191505060405180910390f35b341561052a57600080fd5b61055f600480803573ffffffffffffffffffffffffffffffffffffffff16906020019091908035906020019091905050611384565b604051808215151515815260200191505060405180910390f35b341561058457600080fd5b6105b0600480803573ffffffffffffffffffffffffffffffffffffffff16906020019091905050611615565b6040518082815260200191505060405180910390f35b34156105d157600080fd5b6105d961165d565b6040518082815260200191505060405180910390f35b34156105fa57600080fd5b61062f600480803573ffffffffffffffffffffffffffffffffffffffff16906020019091908035906020019091905050611663565b604051808215151515815260200191505060405180910390f35b341561065457600080fd5b61065c6118bc565b604051808273ffffffffffffffffffffffffffffffffffffffff1673ffffffffffffffffffffffffffffffffffffffff16815260200191505060405180910390f35b34156106a957600080fd5b6106b16118e2565b6040518080602001828103825283818151815260200191508051906020019080838360005b838110156106f15780820151818401526020810190506106d6565b50505050905090810190601f16801561071e5780820380516001836020036101000a031916815260200191505b509250505060405180910390f35b341561073757600080fd5b610763600480803573ffffffffffffffffffffffffffffffffffffffff16906020019091905050611980565b6040518082815260200191505060405180910390f35b341561078457600080fd5b61078c611998565b6040518082815260200191505060405180910390f35b34156107ad57600080fd5b6107d9600480803573ffffffffffffffffffffffffffffffffffffffff1690602001909190505061199e565b005b34156107e657600080fd5b6107ee611a3e565b6040518082815260200191505060405180910390f35b341561080f57600080fd5b610817611a44565b6040518082815260200191505060405180910390f35b341561083857600080fd5b61086d600480803573ffffffffffffffffffffffffffffffffffffffff16906020019091908035906020019091905050611a4a565b604051808215151515815260200191505060405180910390f35b341561089257600080fd5b6108c7600480803573ffffffffffffffffffffffffffffffffffffffff16906020019091908035906020019091905050611c69565b604051808215151515815260200191505060405180910390f35b34156108ec57600080fd5b6109026004808035906020019091905050611e65565b005b341561090f57600080fd5b61095a600480803573ffffffffffffffffffffffffffffffffffffffff1690602001909190803573ffffffffffffffffffffffffffffffffffffffff16906020019091905050611ee8565b6040518082815260200191505060405180910390f35b341561097b57600080fd5b610983611f6f565b6040518082815260200191505060405180910390f35b34156109a457600080fd5b6109d0600480803573ffffffffffffffffffffffffffffffffffffffff16906020019091905050611f75565b005b34156109dd57600080fd5b6109e56120cd565b6040518082815260200191505060405180910390f35b3415610a0657600080fd5b610a0e6120d3565b6040518082815260200191505060405180910390f35b60085481565b60058054600181600116156101000203166002900480601f016020809104026020016040519081016040528092919081815260200182805460018160011615610100020316600290048015610ac05780601f10610a9557610100808354040283529160200191610ac0565b820191906000526020600020905b815481529060010190602001808311610aa357829003601f168201915b505050505081565b600081600260003373ffffffffffffffffffffffffffffffffffffffff1673ffffffffffffffffffffffffffffffffffffffff16815260200190815260200160002060008573ffffffffffffffffffffffffffffffffffffffff1673ffffffffffffffffffffffffffffffffffffffff168152602001908152602001600020819055508273ffffffffffffffffffffffffffffffffffffffff163373ffffffffffffffffffffffffffffffffffffffff167f8c5be1e5ebec7d5bd14f71427d1e84f3dd0314c0f7b2291e5b200ac8c7c3b925846040518082815260200191505060405180910390a36001905092915050565b60095481565b60008073ffffffffffffffffffffffffffffffffffffffff168373ffffffffffffffffffffffffffffffffffffffff1614151515610bfd57600080fd5b6000808573ffffffffffffffffffffffffffffffffffffffff1673ffffffffffffffffffffffffffffffffffffffff168152602001908152602001600020548211151515610c4a57600080fd5b600260008573ffffffffffffffffffffffffffffffffffffffff1673ffffffffffffffffffffffffffffffffffffffff16815260200190815260200160002060003373ffffffffffffffffffffffffffffffffffffffff1673ffffffffffffffffffffffffffffffffffffffff168152602001908152602001600020548211151515610cd557600080fd5b610d26826000808773ffffffffffffffffffffffffffffffffffffffff1673ffffffffffffffffffffffffffffffffffffffff168152602001908152602001600020546120d990919063ffffffff16565b6000808673ffffffffffffffffffffffffffffffffffffffff1673ffffffffffffffffffffffffffffffffffffffff16815260200190815260200160002081905550610db9826000808673ffffffffffffffffffffffffffffffffffffffff1673ffffffffffffffffffffffffffffffffffffffff168152602001908152602001600020546120f290919063ffffffff16565b6000808573ffffffffffffffffffffffffffffffffffffffff1673ffffffffffffffffffffffffffffffffffffffff16815260200190815260200160002081905550610e8a82600260008773ffffffffffffffffffffffffffffffffffffffff1673ffffffffffffffffffffffffffffffffffffffff16815260200190815260200160002060003373ffffffffffffffffffffffffffffffffffffffff1673ffffffffffffffffffffffffffffffffffffffff168152602001908152602001600020546120d990919063ffffffff16565b600260008673ffffffffffffffffffffffffffffffffffffffff1673ffffffffffffffffffffffffffffffffffffffff16815260200190815260200160002060003373ffffffffffffffffffffffffffffffffffffffff1673ffffffffffffffffffffffffffffffffffffffff168152602001908152602001600020819055508273ffffffffffffffffffffffffffffffffffffffff168473ffffffffffffffffffffffffffffffffffffffff167fddf252ad1be2c89b69c2b068fc378daa952ba7f163c4a11628f55a4df523b3ef846040518082815260200191505060405180910390a3600190509392505050565b60105481565b60075481565b6000610f90612110565b9050600f548110158015610fa5575060105481105b1515610fb057600080fd5b67016345785d8a00003373ffffffffffffffffffffffffffffffffffffffff1631111515610fdd57600080fd5b3373ffffffffffffffffffffffffffffffffffffffff1631600d60003373ffffffffffffffffffffffffffffffffffffffff1673ffffffffffffffffffffffffffffffffffffffff1681526020019081526020016000208190555050565b600e6020528060005260406000206000915054906101000a900460ff1681565b60155481565b600061106b612110565b90506013548110158015611080575060145481105b151561108b57600080fd5b60001515600e60003373ffffffffffffffffffffffffffffffffffffffff1673ffffffffffffffffffffffffffffffffffffffff16815260200190815260200160002060009054906101000a900460ff1615151415156110ea57600080fd5b6000600d60003373ffffffffffffffffffffffffffffffffffffffff1673ffffffffffffffffffffffffffffffffffffffff1681526020019081526020016000205411151561113857600080fd5b66b1a2bc2ec500003373ffffffffffffffffffffffffffffffffffffffff163101600d60003373ffffffffffffffffffffffffffffffffffffffff1673ffffffffffffffffffffffffffffffffffffffff16815260200190815260200160002054111515156111a657600080fd5b6001600e60003373ffffffffffffffffffffffffffffffffffffffff1673ffffffffffffffffffffffffffffffffffffffff16815260200190815260200160002060006101000a81548160ff02191690831515021790555061124f3361124a600d60003373ffffffffffffffffffffffffffffffffffffffff1673ffffffffffffffffffffffffffffffffffffffff16815260200190815260200160002054612138565b6128a0565b151561125a57600080fd5b50565b600360009054906101000a900473ffffffffffffffffffffffffffffffffffffffff1673ffffffffffffffffffffffffffffffffffffffff163373ffffffffffffffffffffffffffffffffffffffff161415156112b957600080fd5b6000811115156112c857600080fd5b80610e100260046000828254019250508190555050565b60115481565b600360009054906101000a900473ffffffffffffffffffffffffffffffffffffffff1673ffffffffffffffffffffffffffffffffffffffff163373ffffffffffffffffffffffffffffffffffffffff1614151561134157600080fd5b80600360146101000a81548160ff02191690831515021790555050565b601660009054906101000a900473ffffffffffffffffffffffffffffffffffffffff1681565b600080600260003373ffffffffffffffffffffffffffffffffffffffff1673ffffffffffffffffffffffffffffffffffffffff16815260200190815260200160002060008573ffffffffffffffffffffffffffffffffffffffff1673ffffffffffffffffffffffffffffffffffffffff16815260200190815260200160002054905080831115611495576000600260003373ffffffffffffffffffffffffffffffffffffffff1673ffffffffffffffffffffffffffffffffffffffff16815260200190815260200160002060008673ffffffffffffffffffffffffffffffffffffffff1673ffffffffffffffffffffffffffffffffffffffff16815260200190815260200160002081905550611529565b6114a883826120d990919063ffffffff16565b600260003373ffffffffffffffffffffffffffffffffffffffff1673ffffffffffffffffffffffffffffffffffffffff16815260200190815260200160002060008673ffffffffffffffffffffffffffffffffffffffff1673ffffffffffffffffffffffffffffffffffffffff168152602001908152602001600020819055505b8373ffffffffffffffffffffffffffffffffffffffff163373ffffffffffffffffffffffffffffffffffffffff167f8c5be1e5ebec7d5bd14f71427d1e84f3dd0314c0f7b2291e5b200ac8c7c3b925600260003373ffffffffffffffffffffffffffffffffffffffff1673ffffffffffffffffffffffffffffffffffffffff16815260200190815260200160002060008873ffffffffffffffffffffffffffffffffffffffff1673ffffffffffffffffffffffffffffffffffffffff168152602001908152602001600020546040518082815260200191505060405180910390a3600191505092915050565b60008060008373ffffffffffffffffffffffffffffffffffffffff1673ffffffffffffffffffffffffffffffffffffffff168152602001908152602001600020549050919050565b60135481565b60008061166e612110565b9050601660009054906101000a900473ffffffffffffffffffffffffffffffffffffffff1673ffffffffffffffffffffffffffffffffffffffff163373ffffffffffffffffffffffffffffffffffffffff161415156116cc57600080fd5b60155481101515156116dd57600080fd5b600073ffffffffffffffffffffffffffffffffffffffff168473ffffffffffffffffffffffffffffffffffffffff161415151561171957600080fd5b600b5460095461173460085486612a8690919063ffffffff16565b011115151561174257600080fd5b611757836009546120f290919063ffffffff16565b6009819055506117ae836000808773ffffffffffffffffffffffffffffffffffffffff1673ffffffffffffffffffffffffffffffffffffffff168152602001908152602001600020546120f290919063ffffffff16565b6000808673ffffffffffffffffffffffffffffffffffffffff1673ffffffffffffffffffffffffffffffffffffffff168152602001908152602001600020819055508373ffffffffffffffffffffffffffffffffffffffff1631600d60008673ffffffffffffffffffffffffffffffffffffffff1673ffffffffffffffffffffffffffffffffffffffff168152602001908152602001600020819055508373ffffffffffffffffffffffffffffffffffffffff16600073ffffffffffffffffffffffffffffffffffffffff167fddf252ad1be2c89b69c2b068fc378daa952ba7f163c4a11628f55a4df523b3ef856040518082815260200191505060405180910390a3600191505092915050565b600360009054906101000a900473ffffffffffffffffffffffffffffffffffffffff1681565b60068054600181600116156101000203166002900480601f0160208091040260200160405190810160405280929190818152602001828054600181600116156101000203166002900480156119785780601f1061194d57610100808354040283529160200191611978565b820191906000526020600020905b81548152906001019060200180831161195b57829003601f168201915b505050505081565b600d6020528060005260406000206000915090505481565b60125481565b600360009054906101000a900473ffffffffffffffffffffffffffffffffffffffff1673ffffffffffffffffffffffffffffffffffffffff163373ffffffffffffffffffffffffffffffffffffffff161415156119fa57600080fd5b80601660006101000a81548173ffffffffffffffffffffffffffffffffffffffff021916908373ffffffffffffffffffffffffffffffffffffffff16021790555050565b600a5481565b600f5481565b60008073ffffffffffffffffffffffffffffffffffffffff168373ffffffffffffffffffffffffffffffffffffffff1614151515611a8757600080fd5b6000803373ffffffffffffffffffffffffffffffffffffffff1673ffffffffffffffffffffffffffffffffffffffff168152602001908152602001600020548211151515611ad457600080fd5b611b25826000803373ffffffffffffffffffffffffffffffffffffffff1673ffffffffffffffffffffffffffffffffffffffff168152602001908152602001600020546120d990919063ffffffff16565b6000803373ffffffffffffffffffffffffffffffffffffffff1673ffffffffffffffffffffffffffffffffffffffff16815260200190815260200160002081905550611bb8826000808673ffffffffffffffffffffffffffffffffffffffff1673ffffffffffffffffffffffffffffffffffffffff168152602001908152602001600020546120f290919063ffffffff16565b6000808573ffffffffffffffffffffffffffffffffffffffff1673ffffffffffffffffffffffffffffffffffffffff168152602001908152602001600020819055508273ffffffffffffffffffffffffffffffffffffffff163373ffffffffffffffffffffffffffffffffffffffff167fddf252ad1be2c89b69c2b068fc378daa952ba7f163c4a11628f55a4df523b3ef846040518082815260200191505060405180910390a36001905092915050565b6000611cfa82600260003373ffffffffffffffffffffffffffffffffffffffff1673ffffffffffffffffffffffffffffffffffffffff16815260200190815260200160002060008673ffffffffffffffffffffffffffffffffffffffff1673ffffffffffffffffffffffffffffffffffffffff168152602001908152602001600020546120f290919063ffffffff16565b600260003373ffffffffffffffffffffffffffffffffffffffff1673ffffffffffffffffffffffffffffffffffffffff16815260200190815260200160002060008573ffffffffffffffffffffffffffffffffffffffff1673ffffffffffffffffffffffffffffffffffffffff168152602001908152602001600020819055508273ffffffffffffffffffffffffffffffffffffffff163373ffffffffffffffffffffffffffffffffffffffff167f8c5be1e5ebec7d5bd14f71427d1e84f3dd0314c0f7b2291e5b200ac8c7c3b925600260003373ffffffffffffffffffffffffffffffffffffffff1673ffffffffffffffffffffffffffffffffffffffff16815260200190815260200160002060008773ffffffffffffffffffffffffffffffffffffffff1673ffffffffffffffffffffffffffffffffffffffff168152602001908152602001600020546040518082815260200191505060405180910390a36001905092915050565b600360009054906101000a900473ffffffffffffffffffffffffffffffffffffffff1673ffffffffffffffffffffffffffffffffffffffff163373ffffffffffffffffffffffffffffffffffffffff16141515611ec157600080fd5b600081111515611ed057600080fd5b80620151800260046000828254019250508190555050565b6000600260008473ffffffffffffffffffffffffffffffffffffffff1673ffffffffffffffffffffffffffffffffffffffff16815260200190815260200160002060008373ffffffffffffffffffffffffffffffffffffffff1673ffffffffffffffffffffffffffffffffffffffff16815260200190815260200160002054905092915050565b60145481565b600360009054906101000a900473ffffffffffffffffffffffffffffffffffffffff1673ffffffffffffffffffffffffffffffffffffffff163373ffffffffffffffffffffffffffffffffffffffff16141515611fd157600080fd5b600073ffffffffffffffffffffffffffffffffffffffff168173ffffffffffffffffffffffffffffffffffffffff161415151561200d57600080fd5b8073ffffffffffffffffffffffffffffffffffffffff16600360009054906101000a900473ffffffffffffffffffffffffffffffffffffffff1673ffffffffffffffffffffffffffffffffffffffff167f8be0079c531659141344cd1fd0a4f28419497f9722a3daafe3b4186f6b6457e060405160405180910390a380600360006101000a81548173ffffffffffffffffffffffffffffffffffffffff021916908373ffffffffffffffffffffffffffffffffffffffff16021790555050565b600c5481565b600b5481565b60008282111515156120e757fe5b818303905092915050565b600080828401905083811015151561210657fe5b8091505092915050565b6000600360149054906101000a900460ff1615612131576004549050612135565b4290505b90565b6000670de0b6b3a764000082101561215e576121576002600854612a86565b905061289b565b671bc16d674ec800008210156121825761217b600a600854612a86565b905061289b565b6729a2241af62c00008210156121a65761219f6018600854612a86565b905061289b565b673782dace9d9000008210156121ca576121c3602b600854612a86565b905061289b565b674563918244f400008210156121ee576121e76044600854612a86565b905061289b565b6753444835ec5800008210156122125761220b605f600854612a86565b905061289b565b676124fee993bc00008210156122365761222f607e600854612a86565b905061289b565b676f05b59d3b20000082101561225a57612253609e600854612a86565b905061289b565b677ce66c50e284000082101561227e5761227760be600854612a86565b905061289b565b678ac7230489e800008210156122a25761229b60e0600854612a86565b905061289b565b6798a7d9b8314c00008210156122c7576122c0610100600854612a86565b905061289b565b67a688906bd8b000008210156122ec576122e5610121600854612a86565b905061289b565b67b469471f801400008210156123115761230a610141600854612a86565b905061289b565b67c249fdd3277800008210156123365761232f610160600854612a86565b905061289b565b67d02ab486cedc000082101561235b5761235461017f600854612a86565b905061289b565b67de0b6b3a764000008210156123805761237961019c600854612a86565b905061289b565b67ebec21ee1da400008210156123a55761239e6101b9600854612a86565b905061289b565b67f9ccd8a1c50800008210156123ca576123c36101d4600854612a86565b905061289b565b680107ad8f556c6c00008210156123f0576123e96101ef600854612a86565b905061289b565b6801158e460913d000008210156124165761240f610209600854612a86565b905061289b565b6801236efcbcbb34000082101561243c57612435610222600854612a86565b905061289b565b6801314fb370629800008210156124625761245b61023a600854612a86565b905061289b565b68013f306a2409fc000082101561248857612481610251600854612a86565b905061289b565b68014d1120d7b16000008210156124ae576124a7610267600854612a86565b905061289b565b68015af1d78b58c400008210156124d4576124cd61027c600854612a86565b905061289b565b680168d28e3f002800008210156124fa576124f3610291600854612a86565b905061289b565b680176b344f2a78c0000821015612520576125196102a5600854612a86565b905061289b565b68018493fba64ef000008210156125465761253f6102b8600854612a86565b905061289b565b68019274b259f654000082101561256c576125656102ca600854612a86565b905061289b565b6801a055690d9db800008210156125925761258b6102dc600854612a86565b905061289b565b6801ae361fc1451c00008210156125b8576125b16102ee600854612a86565b905061289b565b6801bc16d674ec8000008210156125de576125d76102fe600854612a86565b905061289b565b6801c9f78d2893e40000821015612604576125fd61030e600854612a86565b905061289b565b6801d7d843dc3b48000082101561262a5761262361031e600854612a86565b905061289b565b6801e5b8fa8fe2ac00008210156126505761264961032d600854612a86565b905061289b565b6801f399b1438a1000008210156126765761266f61033b600854612a86565b905061289b565b6802017a67f73174000082101561269c57612695610349600854612a86565b905061289b565b68020f5b1eaad8d800008210156126c2576126bb610357600854612a86565b905061289b565b68021d3bd55e803c00008210156126e8576126e1610364600854612a86565b905061289b565b68022b1c8c1227a0000082101561270e57612707610371600854612a86565b905061289b565b680238fd42c5cf0400008210156127345761272d61037d600854612a86565b905061289b565b680246ddf9797668000082101561275a57612753610389600854612a86565b905061289b565b680254beb02d1dcc000082101561278057612779610395600854612a86565b905061289b565b6802629f66e0c53000008210156127a65761279f6103a0600854612a86565b905061289b565b680270801d946c9400008210156127cc576127c56103ab600854612a86565b905061289b565b68027e60d44813f800008210156127f2576127eb6103b6600854612a86565b905061289b565b68028c418afbbb5c0000821015612818576128116103c0600854612a86565b905061289b565b68029a2241af62c0000082101561283e576128376103ca600854612a86565b905061289b565b6802a802f8630a2400008210156128645761285d6103d4600854612a86565b905061289b565b6802b5e3af16b188000082101561288a576128836103dd600854612a86565b905061289b565b6128986103e8600854612a86565b90505b919050565b60008073ffffffffffffffffffffffffffffffffffffffff168373ffffffffffffffffffffffffffffffffffffffff16141515156128dd57600080fd5b600c54600a548301111515156128f257600080fd5b612907826009546120f290919063ffffffff16565b60098190555061292282600a546120f290919063ffffffff16565b600a81905550612979826000808673ffffffffffffffffffffffffffffffffffffffff1673ffffffffffffffffffffffffffffffffffffffff168152602001908152602001600020546120f290919063ffffffff16565b6000808573ffffffffffffffffffffffffffffffffffffffff1673ffffffffffffffffffffffffffffffffffffffff168152602001908152602001600020819055508273ffffffffffffffffffffffffffffffffffffffff1631600d60008573ffffffffffffffffffffffffffffffffffffffff1673ffffffffffffffffffffffffffffffffffffffff168152602001908152602001600020819055508273ffffffffffffffffffffffffffffffffffffffff16600073ffffffffffffffffffffffffffffffffffffffff167fddf252ad1be2c89b69c2b068fc378daa952ba7f163c4a11628f55a4df523b3ef846040518082815260200191505060405180910390a36001905092915050565b6000806000841415612a9b5760009150612aba565b8284029050828482811515612aac57fe5b04141515612ab657fe5b8091505b50929150505600a165627a7a7230582079d430991f0d9eb6c818002a8b401571d44c5dc291f01c16e47f503120d69bf80029",
  "source": "pragma solidity ^0.4.19;\n\nimport \"zeppelin-solidity/contracts/math/SafeMath.sol\";\nimport \"zeppelin-solidity/contracts/token/ERC20/StandardToken.sol\";\nimport \"zeppelin-solidity/contracts/ownership/Ownable.sol\";\nimport \"./TimeWarp.sol\";\n\n\ncontract HODLIT is StandardToken, Ownable, TimeWarp {\n  using SafeMath for uint256;\n  string public name = \"HODL INCENTIVE TOKEN\";\n  string public symbol = \"HIT\";\n  uint256 public decimals = 18;\n  uint256 public multiplicator = 10 ** decimals;\n  uint256 public totalSupply;\n  uint256 public ICDSupply;\n\n  uint256 public hardCap = SafeMath.mul(100000000, multiplicator);\n  uint256 public ICDCap = SafeMath.mul(20000000, multiplicator);\n\n  mapping (address => uint256) public etherBalances;\n  mapping (address => bool) public ICDClaims;\n\n\n  uint256 public regStartTime = 1519848000; // 28 feb 2018 20:00 GMT\n  uint256 public regStopTime = regStartTime + 7 days;\n  uint256 public POHStartTime = regStopTime;\n  uint256 public POHStopTime = POHStartTime + 7 days;\n  uint256 public ICDStartTime = POHStopTime;\n  uint256 public ICDStopTime = ICDStartTime + 7 days;\n  uint256 public PCDStartTime = ICDStopTime + 14 days;\n\n  address public ERC721Address;\n\n  modifier forRegistration {\n    uint256 currentTime = getTime();\n    require(currentTime >= regStartTime && currentTime < regStopTime);\n    _;\n  }\n\n  modifier forICD {\n    uint256 currentTime = getTime();\n    require(currentTime >= ICDStartTime && currentTime < ICDStopTime);\n    _;\n  }\n\n  modifier forERC721 {\n    uint256 currentTime = getTime();\n    require(msg.sender == ERC721Address);\n    require(currentTime >= PCDStartTime);\n    _;\n  }\n\n  function HODLIT() public {\n    uint256 reserve = SafeMath.mul(30000000, multiplicator);\n    owner = msg.sender;\n    totalSupply = totalSupply.add(reserve);\n    balances[owner] = balances[owner].add(reserve);\n    Transfer(address(0), owner, reserve);\n  }\n\n  function() external payable {\n    revert();\n  }\n\n  function setERC721Address(address _ERC721Address) external onlyOwner {\n    ERC721Address = _ERC721Address;\n  }\n\n  function registerEtherBalance() external forRegistration {\n    require(msg.sender.balance > 0.1 ether);\n    etherBalances[msg.sender] = msg.sender.balance;\n  }\n\n  function claimTokens() external forICD {\n    require(ICDClaims[msg.sender] == false);\n    require(etherBalances[msg.sender] > 0);\n    require(etherBalances[msg.sender] <= msg.sender.balance + 50 finney);\n    ICDClaims[msg.sender] = true;\n    require(mintICD(msg.sender, computeReward(etherBalances[msg.sender])));\n  }\n\n  function mintPCD(address _to, uint256 _amount) external forERC721 returns(bool) {\n    require(_to != address(0));\n    require(_amount.mul(multiplicator) + totalSupply <= hardCap);\n    totalSupply = totalSupply.add(_amount);\n    balances[_to] = balances[_to].add(_amount);\n    etherBalances[_to] = _to.balance;\n    Transfer(address(0), _to, _amount);\n    return true;\n  }\n\n  function computeReward(uint256 _amount) internal view returns(uint256) {\n    if (_amount < 1 ether) return SafeMath.mul(2, multiplicator);\n    if (_amount < 2 ether) return SafeMath.mul(10, multiplicator);\n    if (_amount < 3 ether) return SafeMath.mul(24, multiplicator);\n    if (_amount < 4 ether) return SafeMath.mul(43, multiplicator);\n    if (_amount < 5 ether) return SafeMath.mul(68, multiplicator);\n    if (_amount < 6 ether) return SafeMath.mul(95, multiplicator);\n    if (_amount < 7 ether) return SafeMath.mul(126, multiplicator);\n    if (_amount < 8 ether) return SafeMath.mul(158, multiplicator);\n    if (_amount < 9 ether) return SafeMath.mul(190, multiplicator);\n    if (_amount < 10 ether) return SafeMath.mul(224, multiplicator);\n    if (_amount < 11 ether) return SafeMath.mul(256, multiplicator);\n    if (_amount < 12 ether) return SafeMath.mul(289, multiplicator);\n    if (_amount < 13 ether) return SafeMath.mul(321, multiplicator);\n    if (_amount < 14 ether) return SafeMath.mul(352, multiplicator);\n    if (_amount < 15 ether) return SafeMath.mul(383, multiplicator);\n    if (_amount < 16 ether) return SafeMath.mul(412, multiplicator);\n    if (_amount < 17 ether) return SafeMath.mul(441, multiplicator);\n    if (_amount < 18 ether) return SafeMath.mul(468, multiplicator);\n    if (_amount < 19 ether) return SafeMath.mul(495, multiplicator);\n    if (_amount < 20 ether) return SafeMath.mul(521, multiplicator);\n    if (_amount < 21 ether) return SafeMath.mul(546, multiplicator);\n    if (_amount < 22 ether) return SafeMath.mul(570, multiplicator);\n    if (_amount < 23 ether) return SafeMath.mul(593, multiplicator);\n    if (_amount < 24 ether) return SafeMath.mul(615, multiplicator);\n    if (_amount < 25 ether) return SafeMath.mul(636, multiplicator);\n    if (_amount < 26 ether) return SafeMath.mul(657, multiplicator);\n    if (_amount < 27 ether) return SafeMath.mul(677, multiplicator);\n    if (_amount < 28 ether) return SafeMath.mul(696, multiplicator);\n    if (_amount < 29 ether) return SafeMath.mul(714, multiplicator);\n    if (_amount < 30 ether) return SafeMath.mul(732, multiplicator);\n    if (_amount < 31 ether) return SafeMath.mul(750, multiplicator);\n    if (_amount < 32 ether) return SafeMath.mul(766, multiplicator);\n    if (_amount < 33 ether) return SafeMath.mul(782, multiplicator);\n    if (_amount < 34 ether) return SafeMath.mul(798, multiplicator);\n    if (_amount < 35 ether) return SafeMath.mul(813, multiplicator);\n    if (_amount < 36 ether) return SafeMath.mul(827, multiplicator);\n    if (_amount < 37 ether) return SafeMath.mul(841, multiplicator);\n    if (_amount < 38 ether) return SafeMath.mul(855, multiplicator);\n    if (_amount < 39 ether) return SafeMath.mul(868, multiplicator);\n    if (_amount < 40 ether) return SafeMath.mul(881, multiplicator);\n    if (_amount < 41 ether) return SafeMath.mul(893, multiplicator);\n    if (_amount < 42 ether) return SafeMath.mul(905, multiplicator);\n    if (_amount < 43 ether) return SafeMath.mul(917, multiplicator);\n    if (_amount < 44 ether) return SafeMath.mul(928, multiplicator);\n    if (_amount < 45 ether) return SafeMath.mul(939, multiplicator);\n    if (_amount < 46 ether) return SafeMath.mul(950, multiplicator);\n    if (_amount < 47 ether) return SafeMath.mul(960, multiplicator);\n    if (_amount < 48 ether) return SafeMath.mul(970, multiplicator);\n    if (_amount < 49 ether) return SafeMath.mul(980, multiplicator);\n    if (_amount < 50 ether) return SafeMath.mul(989, multiplicator);\n    return SafeMath.mul(1000, multiplicator);\n  }\n\n  function mintICD(address _to, uint256 _amount) internal returns(bool) {\n    require(_to != address(0));\n    require(_amount + ICDSupply <= ICDCap);\n    totalSupply = totalSupply.add(_amount);\n    ICDSupply = ICDSupply.add(_amount);\n    balances[_to] = balances[_to].add(_amount);\n    etherBalances[_to] = _to.balance;\n    Transfer(address(0), _to, _amount);\n    return true;\n  }\n}\n",
  "sourcePath": "/Users/wulf/git/hodlit/contract/contracts/HODLIT.sol",
  "compiler": {
    "name": "solc",
    "version": "0.4.19+commit.c4cbbb05.Emscripten.clang"
  },
  "schemaVersion": "1.0.1",
  "updatedAt": "2018-02-22T01:49:36.871Z"
}