{
  "contractName": "Mock",
  "abi": [
    {
      "constant": true,
      "inputs": [],
      "name": "hodlit",
      "outputs": [
        {
          "name": "",
          "type": "address"
        }
      ],
      "payable": false,
      "stateMutability": "view",
      "type": "function"
    },
    {
      "inputs": [
        {
          "name": "_hodlit",
          "type": "address"
        }
      ],
      "payable": false,
      "stateMutability": "nonpayable",
      "type": "constructor"
    },
    {
      "constant": false,
      "inputs": [
        {
          "name": "_hodlit",
          "type": "address"
        }
      ],
      "name": "setTokenAddress",
      "outputs": [],
      "payable": false,
      "stateMutability": "nonpayable",
      "type": "function"
    },
    {
      "constant": false,
      "inputs": [
        {
          "name": "_to",
          "type": "address"
        },
        {
          "name": "_amount",
          "type": "uint256"
        }
      ],
      "name": "mintFor",
      "outputs": [],
      "payable": false,
      "stateMutability": "nonpayable",
      "type": "function"
    }
  ],
  "bytecode": "0x6060604052341561000f57600080fd5b60405160208061033183398101604052808051906020019091905050806000806101000a81548173ffffffffffffffffffffffffffffffffffffffff021916908373ffffffffffffffffffffffffffffffffffffffff160217905550506102b68061007b6000396000f300606060405260043610610057576000357c0100000000000000000000000000000000000000000000000000000000900463ffffffff1680631db080d91461005c57806326a4e8d2146100b1578063da1919b3146100ea575b600080fd5b341561006757600080fd5b61006f61012c565b604051808273ffffffffffffffffffffffffffffffffffffffff1673ffffffffffffffffffffffffffffffffffffffff16815260200191505060405180910390f35b34156100bc57600080fd5b6100e8600480803573ffffffffffffffffffffffffffffffffffffffff16906020019091905050610151565b005b34156100f557600080fd5b61012a600480803573ffffffffffffffffffffffffffffffffffffffff16906020019091908035906020019091905050610194565b005b6000809054906101000a900473ffffffffffffffffffffffffffffffffffffffff1681565b806000806101000a81548173ffffffffffffffffffffffffffffffffffffffff021916908373ffffffffffffffffffffffffffffffffffffffff16021790555050565b6000809054906101000a900473ffffffffffffffffffffffffffffffffffffffff1673ffffffffffffffffffffffffffffffffffffffff1663742cd75d83836000604051602001526040518363ffffffff167c0100000000000000000000000000000000000000000000000000000000028152600401808373ffffffffffffffffffffffffffffffffffffffff1673ffffffffffffffffffffffffffffffffffffffff16815260200182815260200192505050602060405180830381600087803b151561026057600080fd5b6102c65a03f1151561027157600080fd5b50505060405180519050151561028657600080fd5b50505600a165627a7a72305820986b07eb2185cd68feaa84414dd3d8452fef24e56ec1e789bc9540aa7e74c1120029",
  "source": "pragma solidity ^0.4.19;\n\nimport './HODLIT.sol';\n\ncontract Mock {\n  HODLIT public hodlit;\n\n  function Mock(address _hodlit) public {\n    hodlit = HODLIT(_hodlit);\n  }\n\n  function setTokenAddress(address _hodlit) external {\n    hodlit = HODLIT(_hodlit);\n  }\n\n  function mintFor(address _to, uint256 _amount) external {\n    require(hodlit.mintPCD(_to, _amount));\n  }\n}\n",
  "sourcePath": "/Users/wulf/git/hodlit/contract/contracts/Mock.sol",
  "compiler": {
    "name": "solc",
    "version": "0.4.19+commit.c4cbbb05.Emscripten.clang"
  },
  "schemaVersion": "1.0.1",
  "updatedAt": "2018-02-22T01:49:36.863Z"
}