{
  "contractName": "TimeWarp",
  "abi": [
    {
      "constant": true,
      "inputs": [],
      "name": "owner",
      "outputs": [
        {
          "name": "",
          "type": "address"
        }
      ],
      "payable": false,
      "stateMutability": "view",
      "type": "function"
    },
    {
      "constant": false,
      "inputs": [
        {
          "name": "newOwner",
          "type": "address"
        }
      ],
      "name": "transferOwnership",
      "outputs": [],
      "payable": false,
      "stateMutability": "nonpayable",
      "type": "function"
    },
    {
      "anonymous": false,
      "inputs": [
        {
          "indexed": true,
          "name": "previousOwner",
          "type": "address"
        },
        {
          "indexed": true,
          "name": "newOwner",
          "type": "address"
        }
      ],
      "name": "OwnershipTransferred",
      "type": "event"
    },
    {
      "constant": false,
      "inputs": [
        {
          "name": "_development",
          "type": "bool"
        }
      ],
      "name": "setDevelopment",
      "outputs": [],
      "payable": false,
      "stateMutability": "nonpayable",
      "type": "function"
    },
    {
      "constant": false,
      "inputs": [
        {
          "name": "_days",
          "type": "uint256"
        }
      ],
      "name": "addDays",
      "outputs": [],
      "payable": false,
      "stateMutability": "nonpayable",
      "type": "function"
    },
    {
      "constant": false,
      "inputs": [
        {
          "name": "_hours",
          "type": "uint256"
        }
      ],
      "name": "addHours",
      "outputs": [],
      "payable": false,
      "stateMutability": "nonpayable",
      "type": "function"
    }
  ],
  "bytecode": "0x606060405242600155336000806101000a81548173ffffffffffffffffffffffffffffffffffffffff021916908373ffffffffffffffffffffffffffffffffffffffff16021790555061048c806100576000396000f30060606040526004361061006d576000357c0100000000000000000000000000000000000000000000000000000000900463ffffffff1680634dfd299c14610072578063532575ca146100955780638da5cb5b146100ba578063dabd5d651461010f578063f2fde38b14610132575b600080fd5b341561007d57600080fd5b610093600480803590602001909190505061016b565b005b34156100a057600080fd5b6100b8600480803515159060200190919050506101ec565b005b34156100c557600080fd5b6100cd610264565b604051808273ffffffffffffffffffffffffffffffffffffffff1673ffffffffffffffffffffffffffffffffffffffff16815260200191505060405180910390f35b341561011a57600080fd5b6101306004808035906020019091905050610289565b005b341561013d57600080fd5b610169600480803573ffffffffffffffffffffffffffffffffffffffff1690602001909190505061030b565b005b6000809054906101000a900473ffffffffffffffffffffffffffffffffffffffff1673ffffffffffffffffffffffffffffffffffffffff163373ffffffffffffffffffffffffffffffffffffffff161415156101c657600080fd5b6000811115156101d557600080fd5b80610e100260016000828254019250508190555050565b6000809054906101000a900473ffffffffffffffffffffffffffffffffffffffff1673ffffffffffffffffffffffffffffffffffffffff163373ffffffffffffffffffffffffffffffffffffffff1614151561024757600080fd5b80600060146101000a81548160ff02191690831515021790555050565b6000809054906101000a900473ffffffffffffffffffffffffffffffffffffffff1681565b6000809054906101000a900473ffffffffffffffffffffffffffffffffffffffff1673ffffffffffffffffffffffffffffffffffffffff163373ffffffffffffffffffffffffffffffffffffffff161415156102e457600080fd5b6000811115156102f357600080fd5b80620151800260016000828254019250508190555050565b6000809054906101000a900473ffffffffffffffffffffffffffffffffffffffff1673ffffffffffffffffffffffffffffffffffffffff163373ffffffffffffffffffffffffffffffffffffffff1614151561036657600080fd5b600073ffffffffffffffffffffffffffffffffffffffff168173ffffffffffffffffffffffffffffffffffffffff16141515156103a257600080fd5b8073ffffffffffffffffffffffffffffffffffffffff166000809054906101000a900473ffffffffffffffffffffffffffffffffffffffff1673ffffffffffffffffffffffffffffffffffffffff167f8be0079c531659141344cd1fd0a4f28419497f9722a3daafe3b4186f6b6457e060405160405180910390a3806000806101000a81548173ffffffffffffffffffffffffffffffffffffffff021916908373ffffffffffffffffffffffffffffffffffffffff160217905550505600a165627a7a72305820452b25a0b6fc62349126c6aeff905aa14a5dcf7c7609391a6540ef8863f31a590029",
  "source": "pragma solidity ^0.4.19;\n\nimport \"zeppelin-solidity/contracts/ownership/Ownable.sol\";\n\ncontract TimeWarp is Ownable {\n  bool development;\n  uint256 warpedTime = block.timestamp;\n\n  function setDevelopment(bool _development)external onlyOwner {\n    development = _development;\n  }\n\n  function addDays(uint256 _days) external onlyOwner {\n    require(_days > 0);\n    warpedTime += 1 days * _days;\n  }\n\n  function addHours(uint256 _hours) external onlyOwner {\n    require(_hours > 0);\n    warpedTime += 1 hours * _hours;\n  }\n\n  function getTime() internal view returns(uint256) {\n    if (development) {\n      return warpedTime;\n    } else {\n      return block.timestamp;\n    }\n  }\n}\n",
  "sourcePath": "/Users/wulf/git/hodlit/contract/contracts/TimeWarp.sol",
  "compiler": {
    "name": "solc",
    "version": "0.4.19+commit.c4cbbb05.Emscripten.clang"
  },
  "schemaVersion": "1.0.1",
  "updatedAt": "2018-02-22T01:47:49.431Z"
}